:020000040800F2
:10000000E8A80020A1010008A9010008AB01000830
:10001000AD010008AF010008B101000800000000B8
:10002000000000000000000000000000B301000814
:10003000B501000800000000B70100087D0B0008B2
:10004000BB010008BB010008BB010008BB010008A0
:10005000BB010008BB010008BB010008BB01000890
:10006000BB010008BB010008BB010008BB01000880
:10007000BB010008BB010008BB010008BB01000870
:10008000BB010008BB010008BB010008BB01000860
:10009000BB010008BB010008BB010008BB01000850
:1000A000BB010008BB010008BB010008BB01000840
:1000B000BB010008BB010008BB010008BB01000830
:1000C000BB010008BB010008BB010008BB01000820
:1000D000BB010008DD0E0008ED0E0008FD0E000853
:1000E000BB010008BB010008BB010008BB01000800
:1000F000BB010008BB010008BB010008BB010008F0
:10010000BB010008BB010008BB010008BB010008DF
:100110000D0F0008BB010008BB010008BB0100086F
:10012000BB010008BB010008BB010008BB010008BF
:10013000BB010008BB010008BB010008BB010008AF
:10014000BB010008BB010008BB010008BB0100089F
:10015000BB010008BB010008BB010008BB0100088F
:10016000BB010008BB010008BB010008BB0100087F
:10017000BB010008BB010008BB010008BB0100086F
:10018000BB010008BB010008DFF810D006F05CFDE1
:1001900006F0CCF900480047E9080008E8A800206C
:1001A0000648804706480047FEE7FEE7FEE7FEE711
:1001B000FEE7FEE7FEE7FEE7FEE7FEE76702000870
:1001C000890100080CB500205449019000900A688C
:1001D00042F480320A604FF4A0430A6802F400320D
:1001E0000092019A521C0192009A12B9019A9A4205
:1001F000F3D10A68920334D501200090474840307B
:10020000026842F0805202604548026842F440426F
:1002100002604248083002680260026842F400420C
:100220000260026842F4A0520260031F3D4A1A6055
:100230000A6842F080720A600A689201FCD53A4A64
:1002400040F205711160016821F00301016001684D
:1002500041F0020101600168C1F381010229FAD174
:100260000CBD00900CBD314810B5016841F470011F
:1002700001602A48016841F001010160274A00211C
:100280000832116002682A4B1A400260031D294A95
:100290001A60026822F48022026020480C3001605B
:1002A000FFF790FF21494FF000608039086010BDD2
:1002B00070B51A4C083420681F4A10F00C011F4812
:1002C00004D05510042903D0082903D002601BE094
:1002D000056019E01149091D0B68C3F380560B68CE
:1002E00003F03F0316B1B5FBF3F201E0B2FBF3F20A
:1002F0000B680968C3F388135A43C1F30141491CD1
:100300004900B2FBF1F1016021680C4AC1F303110D
:10031000121D515C0268CA40026070BD0038024084
:100320000070004019544007003C024088ED00E096
:10033000FFFFF6FE103000240024F400000000202F
:100340002DE9F843FE4C01202072207A0026D8B116
:10035000002504E09DF8000003F0C6FB0546F948BF
:1003600000F0D8FF694600F02BFD0028F2D15DB106
:10037000F5A006F06DFEF34800F0CCFF694600F0F2
:100380001FFD0028F7D12672607818B1F4A1ED485E
:1003900006F052FEA07818B1F3A1EA4806F04CFE30
:1003A000E07818B1F2A1E74806F046FE207918B1CE
:1003B000F1A1E44806F040FE607918B1F0A1E148EF
:1003C00006F03AFEA07918B1EFA1DE4806F034FE3F
:1003D0002078EF4DEF4F4FF005084FF4FA59012800
:1003E00002D0022803D010E03E600220207028686E
:1003F00018B9E948286003F003FE386842F210712A
:10040000884202D90320207002E0207803280DD111
:10041000286818B9E148286003F0F2FD386844F212
:100420006821884202D90420207002E02078042844
:1004300007D1286810BBDA48286003F0E1FD28687E
:1004400018B12078052804D00FE084F800803E60C1
:1004500001E0286818B9D348286003F0D1FD386856
:10046000484502D984F8008028E02078062802D088
:10047000072804D009E003F01CF926701EE0CA48E2
:10048000286003F0BDFD286818B12078082803D043
:100490000DE0082020703E6003F021FB03F0B0FD6A
:1004A0003868484503D9092020703E6002E0207872
:1004B000092803D1A348143001F02FF83E60BDE8AD
:1004C000F883F0B59E4C85B0E07988B103F057FD14
:1004D00000201121CDE9011003900490B3480021C0
:1004E000009003230122084601F064F805B0F0BD36
:1004F00003F0FDFBE0710028F8D0AD48006806F07D
:10050000F6F90646AB480F46006806F0F0F90446D7
:10051000A9480D46006806F0EAF98DE8F00041ECC4
:10052000100BA6A053EC102B06F092FD05B0002393
:10053000BDE8F0401A461946184603F0FFB92DE908
:10054000F041804886B0283800F0E4FE04A900F0AD
:1005500037FC00287ED0A0A006F07AFD9DF81000A0
:10056000312805D100231A461946184603F0E6F94A
:100570009DF81000322801D103F0B1FA9DF8100067
:10058000332801D103F095F89DF81000342802D1EA
:10059000012003F092F89DF81000DFF84C82352816
:1005A00018D1D8F8080006F0A2F906460F46D8F888
:1005B000040006F09CF904460D46D8F8000006F049
:1005C00096F98DE8F00041EC100B88A053EC102B4D
:1005D00006F03EFD9DF81000362817D18B4CA06C1C
:1005E00006F085F906460F46E06C06F080F90446F1
:1005F0000D46D8F8080006F07AF98DE8F00041ECD5
:10060000100B83A053EC102B06F022FD9DF8100078
:10061000372805D100231A461946C72003F08EF962
:100620009DF81000382805D100231A4619460A20E3
:1006300003F084F99DF81000392805D100231A46EB
:10064000C721184603F07AF99DF810006FF0C60430
:10065000412800E03FE005D100231A462146184614
:1006600003F06CF99DF81000422805D100231A46CA
:100670001946204603F062F99DF81000432806D180
:1006800000231A4619466FF0090003F057F99DF848
:100690001000442801D103F02AF89DF810004528E5
:1006A00002D163A006F0D4FC9DF81000462802D1C8
:1006B00065A006F0CDFC9DF810002149472806D022
:1006C000482806D0354D324C492807D009E0012092
:1006D00000E00020087006B0BDE8F081256003F05E
:1006E0008FFC9DF810004A2803D12E48206003F0AB
:1006F00087FC9DF810004B2803D15848206003F078
:100700007FFC9DF810004C2803D15548206003F071
:1007100077FC9DF810004E2803D11F48206003F09D
:100720006FFC9DF810004F2803D14E48206003F065
:1007300067FC9DF81000502800D195E098E000007B
:1007400014000020540D00200D0A517569742063B7
:100750006F6D706C6578206D6F640D0A000000008D
:100760006C696E6500000000626C6163000000004F
:100770006369726300000000746167730000000029
:100780006865696700000000626C75650000000024
:10079000F00C002048000020C40C00208C0C00202D
:1007A000BC0C0020940C0020B40C0020C0A1002040
:1007B000E40C0020E00C0020DC0C0020496E697481
:1007C00020646F6E65212120646174613A20256682
:1007D0002025662025660000524543562D4441548D
:1007E00041210D0A00000000B4A100200D0A526F43
:1007F0006C3A2025660D0A5069743A2025660D0A68
:100800005961773A202566200D0A000030A10020AA
:100810000D0A5961773A2025660D0A4867743A2017
:1008200025660D0A416C743A2025660D0A00000009
:10083000456E74657220636F6D706C6578206D6FA6
:1008400064210D0A000000005175697420636F6D0A
:10085000706C6578206D6F647E0D0A009C0C002022
:10086000A40C00207C0C00209F48206003F0C8FBF3
:100870009DF81000542803D19C48206003F0C0FB71
:100880009DF81000552802D1256003F0B9FB9DF8B2
:100890001000562807D1206800287FF41CAF944828
:1008A000206003F0ADFB9DF81000572803D191485C
:1008B000206003F0A5FB9DF81000582803D18E4856
:1008C000206003F09DFB9DF81000592803D18B4850
:1008D000206003F095FB9DF810005A28DDD1884870
:1008E000206003F08DFBF6E6BAB003F03DFC12A8E1
:1008F00000F03CFD01462822824805F023FD814896
:1009000000F04EFD00F05EF903F00AF87D48AA21E0
:10091000143800F05CFC7CA006F09AFB7C487B4914
:10092000012401600221C0E90114202279A10C30C8
:1009300005F008FD44227D4901A805F003FD7C492E
:1009400001A80860082000F0EFFC01F04DFC794E92
:10095000A51E192330600A22AFF21D411CA8009584
:1009600000F016F919230A22AFF2A94121A8009537
:1009700000F00EF904231422AFF23B6126A8009583
:1009800000F006F98DF874408DF89C4001F0AFFD41
:1009900000250A23052268492BA8009500F0F8F8E5
:1009A000664801F043FF6649664800F0FFFD0520F8
:1009B0000A2300901A46644930A800F0E9F80F2095
:1009C000009032230522614935A800F0E1F88DF846
:1009D000B0408DF8C4408DF8D8404FF4C06003F0AB
:1009E0003BFC5B48C068056002F081FE00231A46AC
:1009F0001946184602F0A2FF56A006F029FB594DF1
:100A000042F2107700F0F2F8306801F003FC286839
:100A1000B842F7D98DF88840F4E738B5044605E0C8
:100A200038489DF800103C3800F0D1FB204600F01B
:100A300071FC694600F0C4F90028F1D138BD38B521
:100A4000044605E02F489DF80010143800F0BFFB65
:100A5000204600F05FFC694600F0B2F90028F1D1B1
:100A600038BD38B505463A4C05E000BF9DF800108A
:100A7000E06800F0ACFB284600F04CFC694600F052
:100A80009FF90028F2D138BD38B5142000F04CFC95
:100A90002F490023103100914FF40062324900F0D9
:100AA0006AFB2B49314C4FF48065C8601548002320
:100AB0002A462F493C38009400F05DFB1148002382
:100AC0002A462C492838009400F055FB0D48002395
:100AD0002A4629491438009400F04DFBBDE83840FF
:100AE000084800F043BC0000CC0C0020AC0C0020F7
:100AF00014090020840C0020B40C0020BC0C002041
:100B0000D40C0020680D002021000000367B0F006F
:100B1000C00600203132333435363738393031327F
:100B2000333435363738393031320000EC8500083F
:100B3000B80600207C060020C12300080316000828
:100B4000EC0600200407002031170008E7350008F4
:100B50001400002048656C6C6F20576F726C642124
:100B60000000000044000020001001405000002060
:100B70000044004000480040004C004032484168BA
:100B8000491C41608168491C8160012101707047E6
:100B900010B5029C826001604FF47A71B1FBF3F1F1
:100BA000C16000210171621C0AD00461264A51888B
:100BB0000A2904D2254B43F82100491C518010BD5D
:100BC0000161F3E74FF0E02021494161214AF02122
:100BD00082F8141D00218161072202611B4A084628
:100BE00042F82010401C0A28FADB70472DE9F0413A
:100BF000154C2078002824D00027277060683D46D7
:100C0000124EE0601AE000BF56F82500A8B1C16896
:100C1000E268B2FBF1F301FB1321026991420CD1AE
:100C2000017951B1006880476068E168411A56F85F
:100C300025008268914200D907716D1C6088854249
:100C4000E2DBBDE8F081000040000020900D0020B4
:100C50003F9002000FE000E070B588B00D460446FA
:100C6000DDE90C0125602271C4E90230217452498A
:100C700052488D4202D10121042003E0854203D174
:100C80000121022003F0E1FE284605F0FFF8532081
:100C9000ADF81400002644F61F600690ADF816600B
:100CA000ADF81C6005A9284604F02EFD6020ADF8C3
:100CB00000000120ADF80200ADF80C600820ADF88E
:100CC0000E004001ADF81000ADF80460ADF8126000
:100CD000207930B101280FD0022818D003282BD159
:100CE00020E0A06802906946284604F08FFD0821A4
:100CF000284604F0CCFE1FE0A06802906946284612
:100D000004F0B0FD0821284604F0C7FE14E0A068F6
:100D100002906946284604F0E1FD0821284604F0C7
:100D2000C6FE09E0A06802906946284604F010FE5D
:100D30000821284604F0C1FE0121284605F07EF86E
:100D400001221146284605F068F80121284604F0E2
:100D500053FD0121284605F041F808B0204670BD3A
:100D600002468068137C01FB0300D168814200D2F7
:100D70000846704710B50446007958B101280FD0D5
:100D8000022813D0032804D12046FFF7E9FF216889
:100D9000086410BD2046FFF7E3FF2168486310BDDB
:100DA0002046FFF7DDFF2168886310BD2046FFF76E
:100DB000D7FF2168C86310BD000800400004004050
:100DC00072B60278B2B1C26843681344521CC26062
:100DD0001A780A70C268836800219A4200D1C16003
:100DE000C26803699A4200D101700121417062B664
:100DF0000846704762B600207047C1680269914298
:100E000001D1002070470169C268914203D901698C
:100E1000C068081A7047D0E902120069891A0844AC
:100E200070474278AAB10A78016943680B44491CAB
:100E300001611A700269836800219A4200D1016140
:100E40000269C3689A4200D14170012101700846CD
:100E500070470020704738B5044640F22555406879
:100E6000294605F028FA0028606818D0294605F0C0
:100E700041FA606805F088F98DF800006946E0687D
:100E8000FFF7CFFF20B3E068FFF7B7FFA168884204
:100E900004D32168002901D02046884738BD40F29C
:100EA0002775294605F007FA0028F7D0294660681B
:100EB00005F020FA63208DF8000069462069FFF7ED
:100EC0007FFF28B19DF80010606805F059F938BD22
:100ED00000222946606805F0CCF938BD10B572B61D
:100EE000F8480068FFF7B7FF62B610BD10B572B6DC
:100EF000F4484068FFF7AFFF62B610BD10B572B698
:100F0000F0488068FFF7A7FF62B610BD10B572B653
:100F1000EC48C068FFF79FFF62B610BDC0E9011240
:100F20000021C1600161012242700170704700B56B
:100F30000346FFF7F3FF184600BD70B505460C46A3
:100F4000084600F0F6F9014622462846FFF7E6FF7C
:100F5000284670BD0020704700B51346FFF74DFFCF
:100F6000984201D3012000BD002000BDC168026984
:100F7000914203D1407808B10120704700207047AA
:100F8000C1680269914203D1007808B1012070471D
:100F90000020704772B6417861B1C16869B1C1681B
:100FA000491EC160C1680269914201D100214170AE
:100FB0000121017062B6002070478168F0E710B52A
:100FC0000B460446FFF719FF0146002B01DB1846CC
:100FD00000E05842814203D82069E0600020207080
:100FE00010BD2DE9FE4F04460E4604F108010C9891
:100FF0004FF0000981E80D00C4E900968DF80990D2
:1010000001208DF80A908DF80B0001464D460F2007
:1010100003F0FDFC02208DF804008DF806508DF8D9
:10102000075003208DF80500A748A84D3118A548A2
:10103000DFF89CA2DFF89CB288464FF480664FF43C
:10104000006717D0B1423CD0B9424BD0B8F54C4FF5
:1010500024D1046025208DF808000121102003F020
:10106000FEFC681500906946284603F029FA07221D
:1010700009210FE0446026208DF808000121480472
:1010800003F0E3FC042000906946284603F018FAB8
:10109000072202214FEA050003F09BFA02A803F0A1
:1010A000E0F802208DF804008DF807905FEA080050
:1010B00031D0B0424ED0B84254D0B8F54C4F35D1B3
:1010C00021E0846027208DF808000121880403F0C6
:1010D000BCFC69465046009603F0F2F907220A214B
:1010E0005046D9E7C46034208DF808000121C804B7
:1010F00003F0ABFC69465846009603F0E1F908227C
:101100000A215846C8E769462846009603F0D8F9F0
:1011100007220A2107E0082000906946284603F0CC
:10112000CFF907220321284603F053FA40216068D3
:1011300005F0BEF860680D9904F08BFF012160682E
:1011400004F0F8FF012240F22551606805F091F8A3
:10115000BDE8FE8F694655465046009703F0B0F94A
:10116000072206E069465D465846009703F0A8F955
:1011700008220B21D7E72DE9FC4780461D46914602
:101180000F4614200A9E00F0CFF84946FFF7D5FE1F
:101190000446142000F0C8F84946FFF7CEFECDE91A
:1011A00000560346224639464046FFF71AFF40469E
:1011B000BDE8FC877CB50446DDE90605CDE9000500
:1011C0002046FFF70EFF20467CBDC068F7E613B54A
:1011D0000446006901A9FFF724FE0028606840F278
:1011E000277104D05FF0010205F043F81CBD002216
:1011F000FAE7ECE770B50C0006460DD00A25B4FB03
:10120000F5F1FFF7F7FFB4FBF5F005FB10413046B1
:10121000BDE870403031ECE770BD70B50C1E05467E
:1012200004DC2D21FFF7E5FF61422846BDE8704050
:10123000E0E770B505462DED028BB0EE408AF0EE8A
:10124000608A51EC180B05F01AFB0446014628464B
:10125000FFF7E3FF2E212846FFF7CBFF204605F0DE
:10126000FDFA53EC182B05F015FA9FED1B1B53EC00
:10127000112B05F012FA05F021FB0146BDEC028BA3
:101280002846BDE87040B5E770B50C46054603E05A
:101290002846641CFFF7ADFF21780029F8D170BD06
:1012A00070B50C0006461BD004EBD4756910FFF72F
:1012B000F7FF25F00100201A3030C1B23046BDE8FA
:1012C000704096E76000002000BCFFBF00000240B5
:1012D00000040240000802400000000080842E410B
:1012E000BDE870400EA1CFE770B50C00054609D0EF
:1012F0002109FFF7F9FF04F00F010A29284605D25A
:10130000303104E0BDE8704006A1BDE73731BDE8EB
:1013100070406EE7C0687047006970478160704731
:101320003062000030780000002801D006F018BDBF
:101330007047F9E7002801D006F0EABC7047F9E7EA
:1013400010B50446C1B20848FFF741FF204610BD62
:1013500008B50548FFF7DEFF6946FFF731FD0028B5
:10136000F7D09DF8000008BD2C0D00202DE9FC41B0
:10137000022440F6C4157A4FCDE900544FF4FA76B2
:10138000334600223946FFF767FCCDE90054334667
:10139000002239461430FFF75FFC1438BDE8FC81A9
:1013A0002DE9F04F89B006466421FFF7E3FC06F112
:1013B000140064218346FFF7DDFC01210A2003F0BD
:1013C00026FB02258DF80C5000248DF80E404FF4BA
:1013D0004070644F02908DF80F404FF003088DF875
:1013E0000D8002A9384603F06BF802220821384626
:1013F00003F0EFF802220921384603F0EAF840F63C
:10140000C417DFF85CA1CDE900754FF4FA794B46BB
:101410000222514604A8FFF71FFC01461122304664
:1014200004F090FFCDE900754B460322514604A815
:10143000FFF712FC01461122584604F083FF49468B
:101440003046FFF797FC40F2EF115846FFF792FC49
:101450008DF80C408DF80E404FF4FE4002908DF850
:101460000F408DF80D8002A93F4803F029F809B01C
:10147000BDE8F08F10B53C4803F088F8002800D094
:10148000012010BD10B504464FF48051FFF7F2FF64
:10149000010004F1140005D040F2EF11FFF76AFCDF
:1014A000012010BD40F2D111FFF764FC002010BDF7
:1014B00010B504464FF40061FFF7DCFF010004F1B2
:1014C000140005D040F2EF11FFF754FC012010BDCD
:1014D00040F20D21FFF74EFC002010BD10B540F288
:1014E000EF111430FFF746FC012010BD10B5044683
:1014F0004FF40061FFF7BEFF30B94FF48051204632
:10150000FFF7B8FF002800D0012010BD6FF0C40223
:10151000514301F57771FFF72DBC10B504464FF428
:101520008071FFF7A7FFC0B94FF400712046FFF7A5
:10153000A1FF90B94FF480612046FFF79BFF60B98F
:101540004FF400512046FFF795FF30B94FF480412A
:101550002046FFF78FFF002800D0012010BD0000BB
:101560000008004000040240000C02400246002037
:10157000FF2A09D041B100BF11F83030934204D0A6
:10158000401CC0B2FF2BF7D1FF2070470022FF287C
:1015900005D049B111F83230834201D1D0B2704741
:1015A000521C92B2FF2BF5D1FF207047954AC2E939
:1015B000000170472DE9FF4781460CA8884690E856
:1015C0001204DDE90F659048074602704370224619
:1015D000B81C04F0B7FEBDF80000CDF80CA0A41CA8
:1015E000CDE9014769F3010065F3CF00ADF8026072
:1015F00068F38200ADF80000684601F00EF8BDE81F
:10160000FF872DE9F0410189026861F30F05130E90
:10161000290C63F3040103797C4C5B0963F34511E6
:1016200061F31745110A1039CAB200F10C0122709A
:10163000601C04F087FE734F60783968FFF796FFEF
:101640000646386800EBC6004168A078FFF79EFFA9
:101650000246FF2E13D0FF2A11D03868042100EB78
:10166000C60001EBC20140682B4646582078B446BC
:10167000801E82B2A078E11CBDE8F041604731468F
:10168000BDE8F04162A005F0E3BC3EB50446154656
:101690006A4804F057FE200C00F01F018DF800107E
:1016A000ADF80240C0F340108DF801006348CDE969
:1016B0000150684600F06AFF3EBD01B582B0029855
:1016C0000068C0F30923C0F304620298103B00894C
:1016D00081B25B4805F0BCFC02980DF11501006871
:1016E000C0F309226846103A04F02CFE5349BDF8B5
:1016F00000000D3188800EBD10B50446B0F57F4F57
:1017000005D04FF60170844203D14EA006E056A0EA
:1017100004E0A4F57F40023802D15EA005F098FCF9
:10172000FF20B0EB142F01D1012010BD002010BD0F
:10173000F0B5424C87B00D342078002853D05DA01E
:1017400005F086FC002525700A26AFF291070220DD
:10175000CDE90107601C00900123CDE903651A461D
:1017600019460220FFF726FF57A005F071FCA0885C
:10177000FF21B1EB102F27D0002822D0012823D041
:10178000022830D157A005F063FC60788DF8140072
:101790000120CDE9010705A80090CDE903650223EA
:1017A000012211461846FFF705FF54A005F050FC32
:1017B00059A005F04DFCA088FFF79EFF50B15EA038
:1017C0000FE062A005F044FCA16807B0201DBDE851
:1017D000F0400847A168201D8847A088052802D04E
:1017E00062A005F035FC07B0F0BD144A0D329070D0
:1017F000012010700020916090805078401C507043
:101800007047000070000020A3110020B80D0020D8
:101810004552524F522C204E4F205355434820439F
:101820004D445F53455428256429204F5220434D91
:10183000445F49442825642920210A00A31500207B
:10184000308600085B53444B5F5359535D2053442B
:101850004B5F4552525F4E4F5F415554484F52497E
:101860005A4544200A0000005B53444B5F535953D0
:101870005D2053444B5F4552525F434F4D4D414EA7
:10188000445F4E4F545F535550504F52544544207F
:101890000A0000005B53444B5F5359535D2053448F
:1018A0004B5F4552525F4E4F5F5249474854532059
:1018B0000A0000005B44454255475D20696E207375
:1018C000656E640A000000005B44454255475D2098
:1018D00073656E642072657120636D64206F6B0A9E
:1018E000000000005B44454255475D20434D445F86
:1018F00052454349455645200A0000005B44454295
:1019000055475D2073656E64207265712073746144
:10191000747573206F6B0A005B44454255475D2028
:10192000726563762061636B3120737461747573C3
:10193000206F6B0A0000000053444B5F5359535F04
:101940004552524F52212121200A00005B4445425A
:1019500055475D20726563762061636B20636D641B
:101960002074696D65206F7574200A005B444542E0
:1019700055475D205741524E494E4720434D442024
:10198000554E2D534543435553530A00010603D585
:101990001B2181EA400000E04000C0B270471021E6
:1019A000F94A02E0435CD35C4354491EC9B2F9D200
:1019B00070471021F54A02E0435CD35C4354491E52
:1019C000C9B2F9D2704710B5102203E0835C8C5C79
:1019D00063408354521ED2B2F8D210BD30B51023EA
:1019E00008E0CC5CD454C55C6C40C454CC18D51809
:1019F000247C2C745B1EDBB2F3D230BD417842797B
:101A00004270427A4271427B42724173817A82789B
:101A100082728170C178C27BC270C27AC273C2798D
:101A2000C272C171817B8279827381717047417802
:101A3000427B4270427A42734279427241718178AC
:101A4000827A82708172C178C279C270C27AC271A0
:101A5000C27BC272C1738179827B8271817370474C
:101A60002DE9F041844600250CEB05041CF80530F7
:101A700094F80180A778E67883EA080080EA0702F4
:101A80007240FFF783FF1CF80510504048400CF8E7
:101A9000050088EA0700FFF779FF61785040484069
:101AA000607087EA0600FFF771FFA1785040484058
:101AB000A07086EA0300FFF769FFE17850404840D4
:101AC0002D1DEDB2E070102DCED3BDE8F0812DE9D3
:101AD000F04F84465FF000040CEB04031CF8042074
:101AE0005F789E78DD7882EA070B8BEA0600684013
:101AF0008046FFF74BFF824680EA020181EA06003A
:101B0000FFF744FFFFF742FF80EA08098AEA07006F
:101B10006840FFF73BFFFFF739FF80EA08085846A7
:101B2000FFF734FF1CF8041080EA090048400CF865
:101B3000040087EA0600FFF729FF597880EA0800C9
:101B40004840587086EA0500FFF720FF997880EA40
:101B500009004840987085EA0200FFF717FFD9781E
:101B600080EA08004840241DE4B2D870102CB3D39A
:101B7000BDE8F08F30B5427F834B0C789A5C6240B1
:101B8000047862400270847F42781C5D624042703B
:101B9000C47F82781C5D62408270047FC2781C5DC5
:101BA0006240C2700A78D40904EBC40404EB440414
:101BB00084EA42020A7004228118845C11F8045DF0
:101BC0006C4084544C794D78121D6C404C718C796A
:101BD0008D78D2B26C408C71CC79CD786C40CC7160
:101BE000102AE9D3027B017C9A5C51400174427B4C
:101BF000417C9A5C51404174827B817C9A5C51406B
:101C00008174C27BC17C9A5C5140C17414228118DA
:101C1000835C11F8044D634083544B794C78121D5A
:101C200063404B718B798C78D2B263408B71CB79E6
:101C3000CC786340CB71202AE9D330BD70B51C232A
:101C4000C218C45C12F8045D6C40C45454795578D1
:101C50001B1F6C40547194799578DBB26C40947181
:101C6000D479D5786C40D471102BE9D8037B464CDD
:101C7000027CE35C5A400274437B427CE35C5A4042
:101C80004274837B827CE35C5A408274C37BC27C57
:101C9000E35C5A40C2740C23C218C55C12F8046D90
:101CA0007540C554557956781B1F75405571957907
:101CB000967875409571D579D6787540D57113F0C1
:101CC000FF03E9D10A78D30700D08D2383EA5202BB
:101CD0000A70417F615C5140027851400170827FFF
:101CE0004178A25C51404170C27F8178A25C514032
:101CF0008170027FC178A25C5140C17070BD38B55F
:101D000001228DF80020002283188C5C521C83F87D
:101D10004040D2B283F82040202AF5D3082400F1B5
:101D2000400503E069462846FFF724FF641E14F0CF
:101D3000FF04F7D138BD00210B46421882F840302D
:101D400082F820304354491CC9B22029F5D370478A
:101D5000F8B50F460546024600F120013846FFF768
:101D60003DFE01248DF8004005F110063846FFF7CE
:101D700016FE3846FFF742FE3846FFF771FEE007D1
:101D800006D0314609E000000A7E00080A7F0008FC
:101D900069462846FFF7EEFE29463846FFF713FE50
:101DA000641CE4B20E2CE1D33846FFF7F8FD384648
:101DB000FFF724FE69462846FFF7DCFE2946384631
:101DC000FFF701FEF8BDF8B50F460446024600F1E4
:101DD00040013846FFF702FE3846FFF728FE384636
:101DE000FFF7E7FD0E2580208DF8000004F11006B6
:101DF00014E0E80705D069462046FFF71FFF31468B
:101E000000E021463846FFF7DEFD3846FFF75FFE6B
:101E10003846FFF70CFE3846FFF7CBFD6D1E15F078
:101E2000FF05E6D121463846FFF7CDFDF8BD80EA33
:101E30000102D1B2E74A32F8111081EA102070474E
:101E400080EA0102D1B2E44A52F8211081EA10205E
:101E5000704730B505460C4643F6A320002303E047
:101E6000E95CFFF7E4FF5B1CA342F9D330BD30B55A
:101E700005460C4643F6A320002303E0E95CFFF788
:101E8000DFFF5B1CA342F9D330BDD249091F0860B4
:101E9000704770B5858804460B3D41190B22801DA3
:101EA000891D04F04FFA04F11100294604F071FA7B
:101EB0000B20A08070BD2DE9F0430C46097999B044
:101EC000904611F0E00F2ED02168C1F309210C29B2
:101ED00029D0102927D910390F0900F5997104F17B
:101EE0000C0900266846FFF70AFF002507E000BF3F
:101EF00009EB06016846424690476D1C1036BD420C
:101F0000F6D36846FFF717FFAFF2451188450AD1AF
:101F1000206821794FEAB04001F01F01A0EB815009
:101F20004FEAB030206019B0BDE8F08370B5A94E1B
:101F3000851D361F0446306840B1AFF27512294640
:101F40002046FFF7B8FF3168A01D88472946204684
:101F5000BDE870409DE78188002908D0491E0A0429
:101F6000120C828003D0C11D801D04F0EBB97047B4
:101F700010B50A4681880446B1F5967F00F1060047
:101F800003D20A54A088401C02E004F002FA0020A8
:101F9000A08010BD70B50446801DA28823880C3A2D
:101FA00092B29B1A9DB204F11201284404F0CAF9BE
:101FB0000C20A0802046FFF7CEFF25806088401CC3
:101FC000608070BD10B5044650F8061FC1F30921AA
:101FD000FFF74DFF0028204602D0BDE81040D9E7AA
:101FE000BDE81040A2E770B5841D05467B49206816
:101FF0000140AA290ED1C0F30921B1F5967F09D875
:10200000800F07D16068000A04D10C212046FFF739
:1020100020FF18B12846BDE870409CE72068C0F357
:1020200009200C2803D12846BDE870407EE770BD2A
:102030008188821D0C2907D300D1D4E71268C2F32E
:102040000922914200D1BDE7704710B50446FFF761
:102050008FFF2046BDE81040EAE72DE9F041604CD3
:1020600000254FF496766580014626802046FFF7CE
:10207000ECFF608800280BD0A71D2088B04206D254
:10208000C15D401C20805648FFF7DFFFF5E7658003
:102090001BE530B504460068C1B2AA291AD110F474
:1020A0007C0F17D1C0F30920B0F5967F12D80D38F8
:1020B00003280FD30A212046FFF7CBFE608120685A
:1020C000C0F30925102D05D32D1F29462046FFF703
:1020D000CEFE605130BD2DE9FC41064600F59977F2
:1020E00000208DF802008DF801000C468DF80000EC
:1020F000054620788DF8000060788DF8010001AA6F
:1021000038A1684604F050F901987855A41C6D1C5C
:10211000202DEEDB012086F85201BDE8FC8101464E
:102120002F48D8E72DE9F0470446DDE9086CDDF8D3
:102130002890B2F5806F04D8294890F8520118B958
:1021400016B10020BDE8F087CAB1C1B102F110009C
:102150001FFA80F502F00F00C0F110000EB1054427
:10216000ADB2AA272770276865F3112727F47C07EB
:102170006CF31C67276023B147F0005303E00C2584
:10218000E8E727F0005323F040472760002E00D1F6
:102190003046636860F3040323F0E000636001D01D
:1021A00000F12000C3B26360A4F808904FF0000370
:1021B000638121B11AB104F10C0004F0C3F8AFF24D
:1021C0006F4221460648FFF776FE2046FFF761FF83
:1021D0002846B7E77C0000207C020020FF00FC00BE
:1021E000BC150020257800001349096801601349D7
:1021F000416070472DE9F04115460E460746002420
:1022000004E0315D3868FEF7E2FF641CAC42F8DBA5
:10221000BDE8F08138B5044604E000BF9DF8000039
:10222000FFF71BFF2068FFF775F86946FEF7C8FD4A
:102230000028F3D138BD0000200000201017002036
:10224000FE494968002900D008477047FC4A002130
:1022500012F8313003F01F03834202D102EBC100B8
:102260007047491CC9B21F29F2D30020704741783A
:10227000012901D100214170704700B50246007864
:10228000800606D55068FFF7F2FF106820F02000A6
:10229000106000BDF8B5044600688100C0F304601A
:1022A00042D501282BD0811E1E293CD2E54E0025A7
:1022B00005EB850116F82120920630D506EB810149
:1022C000496849680A68C2F30462824227D10A89D0
:1022D000238992B29BB29A4221D10868DA49C0F3AD
:1022E0000462DAA004F0B4FE05EB850006EB80057D
:1022F0002046A96888472846BDE8F840BDE7D2498E
:10230000D8A004F0A5FEDD48017889060BD58168C8
:10231000002908D001B02046BDE8F04008476D1CF8
:10232000EDB21E2DC4D3F8BDC0B3FFF78FFF05007B
:10233000F9D02868C0F3411101291AD010F0600FBC
:1023400023D00229EFD16868A1684068826888B20A
:1023500093B2834226D120688BB2C0F30462BA499B
:10236000C7A004F075FE68684068BDE8F84000F05A
:10237000D8BA2089B44983B2206801B0C0F304629E
:10238000BDE8F040CB4804F063BE2168C1F30461AE
:10239000012903D920F06000203028602046BDE8E4
:1023A000F8404DE70090206893B2C0F30462A6495C
:1023B000C14804F04DFE2868ECE7C048006870474B
:1023C0002DE9F041DFF87C82002400BF04EB840695
:1023D000404658F826108A062AD5B84A176800EBF6
:1023E00086052A69BA1AB2EB114F21D911F4784F38
:1023F00019D0C1F38412C1F3C4218A4203D3284601
:10240000FFF73BFF14E06868406800F08AFA2F612C
:1024100058F826104FF0006000EBF1204FEA7051A1
:1024200048F8261004E06868406800F07AFA2F61E6
:10243000641CE4B21E2CC9D3BDE8F081034610B57C
:1024400000209F4A014600BF01EB410402EB8404D7
:10245000647824B1491CC9B21E29F5D310BD01EB23
:10246000410002EB80000121417041681944816004
:1024700010BD03460020724A10B5014612F1F80261
:1024800001EB410402EB8404647824B1491CC9B215
:102490001F29F5D310BD01EB410002EB80000121A3
:1024A000417041681944816010BD10B50246002496
:1024B0006448214601EB810310F823309B060AD4BF
:1024C00001EB810100EB810450F8213043F020033F
:1024D00040F8213002E0491C1E29EBDB1046FFF7D3
:1024E000ADFF10B16060204610BD0024FBE7F0B5E1
:1024F000544A0020724C4FF4803702F5707C01463C
:1025000000EB8003861C52F8235066F3040525F087
:10251000200542F8235002EB830300EB4015DF60F7
:1025200000EB40030CEB051504F8230004EB8303D8
:10253000401C5970C0B25D601E28E1D34F48404C2A
:10254000026804F1F80522F03F02521C026081602B
:10255000002004F51B7654F83030421C62F304036B
:1025600023F0600344F8303000EB400305F823000B
:1025700005EB830300EB4010597006EB0010586028
:10258000D0B21F28E7D3F0BDFFF7C9BDFEB50546A1
:10259000008810F0FF0F35D0C1B2491E1F2931D27B
:1025A000C0B2FFF753FE04002CD068684FF0FF372D
:1025B000082809D9244943A0133104F049FD2068B3
:1025C00020F06000206026E0103080B2FFF751FF5D
:1025D000060017D0666028886988C2B2000ACDE973
:1025E00000020291A888A96882B201237068FFF7EF
:1025F00099FD48B1706800F094F9206820F06000FF
:10260000403020600020FEBD0F4940F253121331CC
:1026100035A004F01DFD3846FEBDFEB541680546F7
:102620004FF0FF37B1F5007F07D8DFF810C02A88D8
:1026300012F00304BCF800005EE0F5E08006002024
:10264000D45E0020341D00200C80000825733A520F
:102650006563762053657373696F6E20256420412E
:10266000434B0A0025733A526563762053657373B2
:10267000696F6E20312041434B0A0000101B00207F
:1026800025733A7265706561742041434B20746F05
:102690002072656D6F74652C73657373696F6E203E
:1026A00069643D25642C7365715F6E756D3D2564AD
:1026B0000A000000C8860008748600084400002054
:1026C0008C1F002025733A4552524F522C41434BE8
:1026D00020627566666572206973206E6F7420656E
:1026E0006E6F7567680A000025733A25643A455293
:1026F000524F520A0000000000F101039BB205D0C6
:102700008C4E012C17D0022C14D145E0ACF80030CF
:102710000023C2F380020290CDE900238AB28648EA
:10272000A968FFF7FFFC10B940F277122EE082484B
:1027300000F0F7F86CE0804C143CD4F80CE08645CF
:1027400001D1ACF80030BCF80000E060431CACF8EC
:1027500000300123C2F38002CDE9002302908AB247
:1027600000237548A968FFF7DDFC68B1E868A06040
:102770006888142800D814206080306820612068A0
:1027800040F020002060D2E740F289126B49AFF29E
:10279000A80004F05DFC47E0103188B2FFF785FE29
:1027A000040035D0BCF80000E168814202D1401C31
:1027B000ACF8000080B2411CE060ACF800102A7850
:1027C0002178C2F3800201F01F010092CDE90110CF
:1027D000A888A96882B2606800234068FFF7A2FC5D
:1027E000C0B1E868A0606888142800D81420608010
:1027F000306820616068406800F093F8206820F439
:10280000F860403020602978C90861F3CF2020604B
:102810000020FEBD494940F2A512AFF2341004F089
:1028200017FC2046FFF729FD3846FEBD44494860A5
:1028300070470089414983B282B2133141A004F04C
:1028400007BC2DE9F0413D4990B02022273108A86E
:1028500003F078FD08A8FFF762FC11208DF8100046
:1028600022208DF81100BDF80000022420F00300A2
:1028700004AD40F00400CDE90145ADF80000684624
:10288000FFF7CBFE33208DF8100044208DF81100A7
:10289000BDF8000020F00300AFF2690601A9401C5A
:1028A00081E8700040F00400ADF800006846FFF7D2
:1028B000B4FE55208DF8100066208DF81100BDF88B
:1028C00000004FF0010820F00300801C4FF47A77DD
:1028D00068F3CF00ADF8027040F00400CDE9025675
:1028E000ADF8000001946846FFF797FE77208DF859
:1028F000100088208DF81100BDF80000ADF80270BE
:1029000020F00300801C68F3CF0040F00400CDE904
:102910000256ADF8000001946846FFF77EFE10B045
:102920008AE50168C1F3092201460D480068FFF7F6
:1029300061BC000044000020241B002031800008FE
:102940008006002025733A73657373696F6E206982
:10295000643D25642C73715F6E756D3D25640A00BE
:102960007C06002010B5012A02D04FF0FF3010BDC8
:10297000F7480978038082781B0C63F3040222F085
:10298000C00240328270F3A004F062FB002010BD50
:1029900070B502242DED0A8B0D460878F94EC0075C
:1029A00003D0D5F80200306006242878800705D5CA
:1029B00029191022301D03F0C5FC10342878400777
:1029C00007D528190C34016871614168B1618068CC
:1029D000F0612878000707D528190C3401683162A6
:1029E000416871628068B0622878C00607D52819EE
:1029F0000C340168F1624168316380687063287843
:102A0000800606D5DF4829191922383003F09AFCD0
:102A10001934287840060AD528190C340168C6F8FC
:102A200051104168C6F855108068C6F859002878DA
:102A300000060AD528190C340168C6F85D104168F3
:102A4000C6F861108068C6F865002888C0050AD5F8
:102A500028190C340168C6F869104168C6F86D1071
:102A60008068C6F871002888800503D5285D86F83F
:102A70007500641C2888400503D5285D86F876001B
:102A8000641C2888000502D5285D86F87700B048C8
:102A900029883438F7EE008A0289B0EE00BA114373
:102AA000018196F87610017096F877104170B5485C
:102AB0007830016800EE101A316A00EE901A30EE9C
:102AC000200A10EE101A0160416800EE101A716AB7
:102AD00000EE901A30EE200A10EE101A4160816864
:102AE00000EE101AF16C00EE901A30EE200AF0EEB3
:102AF000680A10EE101A816070680BEE900AB068D8
:102B000009EE100AF06808EE100A306928EE080A8B
:102B100009EE900A09EE090A40EE4B0A2BEE890AEB
:102B200008EE290A20EE0B0A04F08FFA9FED96CAF0
:102B300020EE0C0A10EE100A03F0D9FE9FED93ABC5
:102B400053EC1A2B03F01BFE03F0E4FE2BEE880A75
:102B50008C4C843409EE690A206020EE0B0A04F0E4
:102B6000A3FA20EE0C0A10EE100A03F0C0FE53EC9C
:102B70001A2B03F004FE03F0CDFE29EEA90AF0EEB5
:102B8000680A606008EE080A40EE4B0A2BEEA90ABC
:102B900008EE090A20EE0B0A04F057FA20EE0C0AA0
:102BA00010EE100A03F0A3FE53EC1A2B03F0E7FD1E
:102BB00003F0B0FEA0600020BDEC0A8B70BD70B5C4
:102BC000634D0178343D8AB0002479B1142105A801
:102BD00003F0DFFB68690A21401C4B076861FA2893
:102BE00009DA8DF81410CDF815300DE001216C6173
:102BF00001700AB070BD4FF04042B0F5FA7F08DABC
:102C00008DF81410CDF81520CDF81940CDF81D40E1
:102C10002FE040F2EE26B04206DA8DF81410CDF81F
:102C20001540CDF81930F1E7B0F57A7F06DA8DF866
:102C30001410CDF81540CDF81920E7E740F2E24234
:102C4000904208DA8DF81410CDF81540CDF81940EF
:102C50004FF07C500BE040F2DC5290420CDA8DF8E1
:102C60001410CDF81540CDF819404FF03F40CDF885
:102C70001D00CDF821401DE040F2D662904209DAF5
:102C80008DF81410CDF81540CDF81940CDF81D4041
:102C900040480BE0B0F5FA6F0BDA8DF81410CDF860
:102CA0001540CDF819403C48CDF81D40CDF8210025
:102CB00000E06C611120CDE9010405A8002100901D
:102CC00003940323012204940846FEF773FC90E763
:102CD00070B51F4D0178343D8AB0002481B11421B4
:102CE00005A803F056FBA8694821401C4FF07C5210
:102CF000A861FA2808DA8DF81410CDF815200CE038
:102D00000121AC61017074E74FF03F43B0F5FA7FE9
:102D100009DA8DF81410CDF81530CDF8194000BF40
:102D2000CDF81D4053E040F2EE26B04206DA8DF8B1
:102D30001410CDF81540CDF81920F1E7B0F57A7FE1
:102D40002CDA8DF81410CDF81540CDF81930E7E7DE
:102D5000BC0600205741524E494E47206E617620F6
:102D6000636C6F7365206279206170702025642028
:102D70002121212121212121212121212121200A5B
:102D80000000000030A10020000034434AD8124D5A
:102D9000FB2109400000B4420000B4C240F2E24608
:102DA000B04208DA8DF81410CDF81540CDF819406E
:102DB000CDF81D200BE040F2DC5290420ADA8DF88B
:102DC0001410CDF81540CDF81940CDF81D30CDF8D0
:102DD00021401DE040F2D662904209DA8DF81410CD
:102DE000CDF81540CDF81940CDF81D40FE480BE058
:102DF000B0F5FA6F0BDA8DF81410CDF81540CDF858
:102E00001940FA48CDF81D40CDF8210000E0AC6132
:102E10001120CDE9010405A80021009003940323AB
:102E2000012204940846FEF7C5FBE2E610B5CCB0DB
:102E300004464FF49672EE49684603F083FA2488FC
:102E4000ECA0214604F004F904EBC40000EB0410EC
:102E5000694601EB4001EDA004F0FAF8F2480121C7
:102E6000052CC17005D001710021C170EF4804F03C
:102E7000EFF84CB010BD70B5014600250278EA4C61
:102E80002846A2B1E178002914D0217919B1E1696D
:102E9000491EE1612071E1698A070FD0E44A1140BF
:102EA000012908D0022909D003290AD00BE0E061EA
:102EB0000120087070BDE070062504E0E070042574
:102EC00001E0E0700125AFF29B012846FEF78DFC82
:102ED0002946D8A004F0BCF8E069401CE06170BD50
:102EE00010B504460068CCB0C0F30923C0F30462F7
:102EF0002089103B81B2D54804F0AAF8206804F17B
:102F00000C01C0F309224BA8103A03F01BFABDF8DC
:102F10002C01FEF7F1FB18B1CDA004F099F8A8E759
:102F20004FF49672D149684603F00CFABDF82C01B3
:102F300000EBC00101EB0010694601EB4001CCA0A1
:102F400004F086F895E700B587B003F0E9F916219B
:102F500090FBF1F201FB12008DF8150003F0E0F98F
:102F6000052190FBF1F201FB1200401C8DF81400CA
:102F700003F0D6F9C3074FF00A004FF4FA71AFF22D
:102F80009F0212D09DF814308DF818300292CDE9CE
:102F90000310012306A8CDE90003022301221146F4
:102FA0000220FEF707FB07B000BD0292CDE9031037
:102FB000022305A8CDE900030123EFE710B504883B
:102FC000CCB02046FEF798FB18B1A1A004F040F861
:102FD00013E0214687A004F03BF84FF49672AC4909
:102FE000684603F0AFF904EBC40000EB0410694637
:102FF00001EB40019EA004F02BF88B4901204871A1
:1030000037E770B50178884C002521B1206A012886
:1030100005DA042037E001212562017070BD824984
:103020004FF41672096A491C904201DA216270BDA0
:1030300040F6282398420CDA904202D195A004F081
:1030400007F87948801DFFF7BAFD206A401C20620E
:1030500070BD40F62922904201DAA571E6E741F2FF
:10306000F813984209DA904202D191A003F0F0FFE0
:103070006D48801DFFF72CFEE7E741F2F912904200
:1030800006DAA5710120AFF2CB01FEF7AEFBDCE75B
:1030900041F23E729042C9DB8CA003F0D9FF4FF0A1
:1030A000FF302562206170BD30B504460068E5B090
:1030B000C0F30923C0F304622089103B81B2634846
:1030C00003F0C6FF206804F10C01C0F3092264A8D4
:1030D000103A03F037F9BDF89001FEF70DFB814C73
:1030E00030B15BA003F0B4FF0220206065B030BDBA
:1030F0004FF4C8727C49684603F024F9BDF890513A
:10310000694605EBC50000EB051001EB400177A017
:1031100003F09EFF01202060434C002DA570E5D1F7
:10312000206BFFF731FA7BA0216B03F091FFDDE705
:1031300010B586B001204FF47A71AFF293023A4C89
:103140002C2338340094CDE90132CDE90310034635
:10315000002211460220FEF72DFA207B009094E811
:103160000E0073A003F074FF06B010BD10B5044646
:1031700000688AB0C0F30923C0F304622089103BC1
:1031800081B2324803F064FFA089ADF800002068E6
:1031900004F10C01C0F3092201A8123A03F0D2F89D
:1031A000BDF8000048B16EA003F052FF7BA002AA58
:1031B000019903F04DFF0AB010BD82A0F4E700B5FD
:1031C00087B001208DF8140000234FF47A72AFF21B
:1031D00063010DF1040C8CE80F0005A800901A465D
:1031E000194602200AE100000000B4420000B4C207
:1031F000788000085B44454255475D2072656376E0
:103200005F61636B20252378200A00005B544553DF
:10321000545F434D445D20436D6420726573756C4B
:10322000743A202573200A00880600200C870008C5
:10323000030000805B544553545F434D445D20734D
:10324000656E64202564200A0000000030860008B6
:103250005B44454255475D2053444B5F5359535F90
:103260004552524F52212121200A0000A48100081A
:1032700072616E646F6D5F7465737420436D64205A
:10328000726573756C743A202573200A0000000083
:1032900060840008446562756720696E666F3A2035
:1032A0007374617274206D6F6465320A00000000EF
:1032B000446562756720696E666F3A207374617247
:1032C00074206D6F6465340A0000000054657374E7
:1032D0005F616C6C2066696E697368656420210AA1
:1032E0000000000038000020D08200085B414354F9
:1032F00049564154494F4E5D20416374697661746B
:10330000696F6E20726573756C743A202573200A9C
:10331000000000005B41435449564154494F4E5D03
:1033200020736574206B65792025730A0000000006
:103330005B41435449564154494F4E5D2073656E7D
:10334000642061637469636974696F6E206D73676B
:103350003A202564202564202564202564200A0065
:103360005B41435449564154494F4E5D204163747B
:1033700069766174696F6E20726573756C743A0A50
:10338000200961636B2053444B5F4E4F5F4155549E
:10339000484F52495A45440A00000000200976650A
:1033A0007273696F6E5F6372632025580A20097615
:1033B000657273696F6E5F6E616D65202573200A9B
:1033C000000000005B41435449564154494F4E5D53
:1033D0002041637469766174696F6E2072657375DC
:1033E0006C743A0A200961636B2053444B5F41437C
:1033F000545F535543434553530A0000FEF7DAF830
:10340000BBA003F025FECEE570B5C34D04460628EB
:1034100001D1C01F28612146C0A003F019FE152C60
:1034200008D8687938B1AFF26B412046FEF7DDF974
:103430000020687170BDBDE87040BAA003F008BEFE
:1034400038B50446BC49BDA003F002FE2068C0F3B5
:103450000923C0F304622089103B81B2BAA003F0B3
:10346000F7FD206804F10C01C0F309226846103A08
:1034700002F068FF38BD2DE9F04F14212DED048BCB
:103480008DB0B0EE618AF0EE418AB0EE609AF0EE57
:10349000409A08A802F07DFF18EE100A03F027FA00
:1034A00082468B4619EE100A03F021FA80468946BF
:1034B00019EE900A03F01BFA06460F4618EE900A22
:1034C00003F015FA044694480D46C06803F00FFA5D
:1034D0008DE8F00F41EC100BA9A053EC102B03F07A
:1034E000B7FD8D48C068B0F17E5F03D0B0F1804F6A
:1034F00002D014E00A2000E048208DF8200019EEE8
:10350000100ACDF8210019EE900ACDF8250018EE2A
:10351000100ACDF8290018EE900ACDF82D000020F1
:103520001121CDE901100390049008A8002100901A
:10353000032301220846FEF73DF80DB0BDEC048BD5
:10354000BDE8F08F00EE100A734810B5B8EEC00A5F
:1035500080ED030A10EE100A03F0C9F941EC100BDC
:10356000BDE8104053EC102B8FA003F071BD6A49E9
:103570000861704710B58FA003F06AFD664CA07813
:10358000002818D093A000BF03F062FD2178FF2926
:1035900013D097A003F05CFD6078002811D00128BB
:1035A00011D0022811D098A003F052FDBDE81040C0
:1035B0009CA003F04DBDA3A0E6E7ACA003F048FD3E
:1035C000EAE7B1A0F0E7B6A0EEE7BBA0ECE7524B0C
:1035D00010B51C780470987808705878107010BD79
:1035E000C1480068704738B54B4C012104F13402E2
:1035F000606A401C60629078B1EB901F0CD120F0A3
:10360000C0009070ADF80010B8A003F021FD0222B8
:103610006946606BFEF739F82069002846DB94F8AC
:103620002800B14DC0070AD13B48283003F033FDD4
:1036300028B12868E06238482830AFF30080286855
:10364000E16A401AB0F57A7F01D30020E071286862
:10365000E06220694FF0FF35072827D2DFE800F04D
:10366000040A10161B202300BDE838402A48C01D5C
:10367000FFF7A5BABDE838402748C01DFFF728BBB3
:10368000BDE838402448C01DFFF7F5BBBDE8384011
:103690002148C01D57E4BDE838401F48C01DB0E4B4
:1036A000FFF746FD01E0FFF78AFD256138BD0420E4
:1036B000AAE60620A8E60120A6E600B587B00146E6
:1036C0008DF8140091A003F0C3FC00234FF47A722C
:1036D000AFF293210DF1040C01208CE80F0005A836
:1036E0000122009011461046FDF764FF5BE41FE5E0
:1036F0005B41435449564154494F4E5D2073656EBA
:10370000642076657273696F6E5F7175657279207A
:103710006D7367200A00000088060020636D642036
:1037200025640A005B434D445D2077616974696ECE
:103730006721200A000000008C85000863616C6C22
:103740002025730A00000000526563762041434B38
:103750002C73657175656E63655F6E756D626572FC
:103760003D25642C73657373696F6E5F69643D25D5
:10377000642C646174615F6C656E3D25640A0000B1
:103780006D6F64652025662079617720256620703D
:103790006974636820256620726F6C6C2025662032
:1037A00076656C2025660A006D6F64652025660AC3
:1037B000000000002D2D202043757272656E74206C
:1037C00073746174757320696E666F3A202D2D0ACB
:1037D0000000000041637469766174696F6E207344
:1037E00074617475733A5B756E6B6E6F775D0A000A
:1037F0006261747465727920636170616369747960
:103800003A256425250A0000436F6E74726F6C20A0
:103810006465766963653A5B756E6B6E6F775D0A9A
:10382000000000002D2D2D2D2D2D2D2D2D2D202096
:10383000456E64202D2D2D2D2D2D2D2D2D2D2D0A58
:103840000000000041637469766174696F6E2073D3
:1038500074617475733A5B41637469766174696FFE
:103860006E20706173735D0A000000004261747421
:103870006572792063617061636974793A5B696E1E
:1038800076616C69645D0A00436F6E74726F6C20C0
:103890006465766963653A5B52435D0A0000000027
:1038A000436F6E74726F6C206465766963653A5B12
:1038B0004150505D0A000000436F6E74726F6C20BF
:1038C0006465766963653A5B7468697264207061E7
:1038D000727479206F6E626F6172642064657669BC
:1038E00063655D0A000000004400002041636B2016
:1038F000636C6F73652073656E64202564202121DD
:10390000212121212121212121200A0073656E64BA
:10391000206F70656E206E61762025640A000000BD
:10392000B6EE000AB44880ED010A9FEDB40A80EDBE
:10393000020AB0EE000A80ED030A70472DE9F05F3D
:103940000E4641422DED028B98469346002801DB3E
:10395000034600E00B464FF4FA727742A84C9342BC
:1039600006DC002E01DB334600E03B46934276DD69
:103970004B232370002800DB01469246DFF8789243
:1039800000FB06F551450EDD03F04FFB00EE100A7B
:10399000D9ED010AB8EEC00A20EE200A10EE100A96
:1039A000C4F801001CE003F040FB00EE100AD9ED62
:1039B000020AB8EEC00A20EE200A10EE100AC4F87F
:1039C0000100284603F031FB00EE100AD9ED030A8E
:1039D000B8EEC00A20EE600A10EE100AC4F80D001E
:1039E000002E00DB3746574530460EDD03F01DFB49
:1039F00000EE100AD9ED010AB8EEC00A20EE200A46
:103A000010EE100AC4F805001DE003F00EFB00EEF6
:103A1000100AD9ED020A4E46B8EEC00A20EE200A7E
:103A200010EE100AC4F80500284603F0FEFA00EE76
:103A3000100AD6ED030AB8EEC00A20EE200A10EEF6
:103A4000100AC4F80D005FEA080001D5C8F10000B3
:103A50000F2820781BDD00F0F7001AE0FFE70B21AC
:103A6000217002F0FBFE9FED678B53EC182B02F0E8
:103A700086FE02F04FFFC4F80100304602F0EEFE71
:103A800053EC182B02F07BFE02F044FFBAE740F043
:103A9000080000EE108A2070B8EEC00A10EE100A7E
:103AA000C4F80D005FEA0B000CD003F0BEFA02F080
:103AB000D5FE9FED561B53EC112B02F0EEFD02F0EC
:103AC00029FF00E00020C4F80900BDEC028BBDE82E
:103AD000F09F4B49112201F1110002F033BC10B5E7
:103AE000FFF7E5FD002010BD2DE9F047424C4449A9
:103AF00086B022682231DFF81C818854521C226073
:103B000091F800C04FF0000A3D4B434ED8F80070CA
:103B100055464FF00109BCF1BB0F34D009DCBCF1B4
:103B2000550F5DD0BCF1990F11D0BCF1AA0F09D18E
:103B300011E0BCF1CC0F2ED0BCF1DD0F2ED0BCF1CA
:103B4000EE0F38D0014635A003F082FA4EE0052A88
:103B50004DD137604AE0112A49D129481022EC3072
:103B6000491C02F0EFFB2F48007828B12448EC30C4
:103B700081682DA003F06CFAD8F800003060484648
:103B80002C4925602AE0152A31D114226846491CA7
:103B900002F0D8FBDDE70D2ADBD028E0152A26D17C
:103BA00017481422FC30491C02F0CCFB3760484611
:103BB0002149256012E00D2A19D1204853F8231F0E
:103BC0000161596841619A6882611DA003F040FA61
:103BD000D8F800003060204948462560087006E0AB
:103BE000022A04D14878012801D18246256006B016
:103BF0005046BDE8F087000014070020CDCCCC3D36
:103C0000C0A1002000000000000059409A99999935
:103C10009999B93F440000203C0000203078257875
:103C200020000000150000204C696E653A202564D4
:103C3000000000003400002035000020C0A2002059
:103C40000D0A426C75652121212121212121256444
:103C5000202564200D0A00003600002010B5EFA0DA
:103C600003F0F6F9FFF723FD012010BD10B504465F
:103C7000642094FBF0F000EE100AEB482DED028B6F
:103C8000F8EEC00AC06C00EE100A30EEC08AB0EE4A
:103C9000480A03F0D7F910EE100AE44988421ADB0B
:103CA000BDEEC80A10EE100A03F0BFF90023024669
:103CB00019461846FFF742FE18EE100A02F017FEEA
:103CC00041EC100BDAA053EC102B03F0C1F90020EB
:103CD000BDEC028B10BD00231A4619461846FFF7AB
:103CE0002DFE2146D6A003F0B3F90120F0E7CE491E
:103CF000C86C00EE900A9FEDD60AD64880EE801A76
:103D0000D0ED000A71EE200AC0ED000A896C00EEC9
:103D1000901AD14980EE801AD0ED010A71EE200A86
:103D2000C0ED010A896800EE901A80EE801A90EDCD
:103D3000020A31EE000A80ED020AC1684A1CC26024
:103D4000622901D9012070470020704710B5C2498F
:103D500000EE100A2DED028B8968B8EEC00A00EE65
:103D6000901ABC4830EE600AD0ED020A30EE208A8C
:103D7000B0EE480A03F066F910EE100AB0F1804F79
:103D80001CDDB0EE480A03F05DF910EE100AB349ED
:103D9000BDEEC80A884210EE100A04DD03F045F9B2
:103DA000C0EB001303E003F040F900EB40030022F6
:103DB00011461046FFF7C2FD002089E7012087E782
:103DC0000020704770B5A649054601200870A54837
:103DD0000024017801B300210170A3480178012972
:103DE00016D980680321404290FBF1F4002C01DBDE
:103DF000204600E0604228280ADD204603F015F93D
:103E00000446284603F011F9444304EB8400C4003F
:103E1000214696A003F01CF9284603F006F9C721B5
:103E2000414300231A462046FFF788FD002070BD5D
:103E3000002310B51A4619461846FFF77FFD0120EA
:103E400010BD10B5FFF735FC002010BD10B503F014
:103E5000ECF8C721002348431A461946FFF76EFDC8
:103E6000002010BD8548FDF723BB10B501468348EF
:103E7000FDF74CFB012010BD8048FDF703BB30B5BA
:103E80007F4901202DED048B83B008707D4DF0EE4D
:103E9000080AB5EE009A95ED010AC0EE208A95ED6C
:103EA000000A20EE098A80EE201AB0EE410A03F0E3
:103EB000C9F810EE100A744CA0420EDD95ED000A10
:103EC000BDEEC00A10EE100A03F0AFF800EB800060
:103ED000C00000EE100AB8EEC08A95ED010A20EE8F
:103EE000090A03F0AFF810EE100AA0420EDD95EDBE
:103EF000010ABDEEC00A10EE100A03F096F800EBBE
:103F00008000C00000EE100AF8EEC08A00231A46B6
:103F1000BDEEE80A10EE101ABDEEC80A10EE100A47
:103F2000FFF70CFDB0EE480A03F08CF810EE100A13
:103F3000A0420CDAB0EE680A03F084F810EE100A22
:103F4000A04204DA012003B0BDEC048B30BD18EEB2
:103F5000900A02F0CCFC04460D4618EE100A02F05E
:103F6000C6FC41EC100B49A053EC102BCDE90045E9
:103F700003F06EF80020E6E74048FDF7AFBA2DE900
:103F8000F041344C6069C0B3484FA2690668396893
:103F900000208A1A2169054606EB01114B689A42F6
:103FA00000D90125E269002A03DC02F58072FF32A4
:103FB00007D1886809688847E169002901DD491E41
:103FC000E16128430CD02069401C2061396806EB70
:103FD0000010A161C168E161816835A003F038F883
:103FE000606921694068884208D10020606134A07E
:103FF00003F02EF80120BDE8F081FFE70020FAE78A
:104000001448002101612949096881614169002939
:1040100002D00968C968C1617047000074616B65AE
:104020006F66660D0A00000030A10020CDCC4C3D2B
:10403000486569676874206572726F722025660032
:104040004F6E204865696768742025640D0A00007A
:104050000000C842DC0C0020B4A100200000704128
:104060001500002034000020ACA200200D0A636F70
:1040700072726563743A2025640D0A00680D002091
:1040800016000020BCA20020000020424241534BF9
:1040900045542121212121212121200D0A0D0A250C
:1040A000662025660D0A0D0A00000000440000206D
:1040B0004E65787420537465702125640D0A0000E4
:1040C00046696E6973682121210D0A0010B501212E
:1040D000080700F0BAFC012000F0AEFA012000F061
:1040E0008DFB412000F052FB0028FAD04FF4807085
:1040F00000F03BFC5548FF2181607F214160012099
:1041000000F048FCBDE8104000F04CBD2DE9FC413A
:10411000054600208DF80700080E8DF804008DF884
:104120000520100A0C468DF8060001A9002000F0B9
:1041300038FE464F012600B93E70C4F3074000B96F
:1041400007208DF80000200A8DF802008DF801404C
:104150008DF803506946002000F09EFE002800D133
:104160003E70BDE8FC81D1E73EB5002001F07EF94C
:1041700043F2F225A84227D0FFF7A8FF334C60682E
:104180000190A068029000200090684600F0A5FD14
:10419000B0B12F4B0C2058720D2018720720D87127
:1041A000052098710820587118710E201860D3E905
:1041B0000112FFF7D8FF2946002001F04FF91BE05C
:1041C0000120207000203EBD7B2000F0DFFA10B9F6
:1041D0007A2000F0DBFA0121080700F036FC01200C
:1041E00000F02AFA00F0DEFC4FF4807001F0B4F920
:1041F0004FF4003000F0EFF801203EBD1CB501A9DE
:10420000002000F01FFE6946002000F094FE1048D8
:104210009DF8061041729DF8051001729DF804107A
:10422000C1719DF8001081719DF8022042719DF8C6
:10423000012002719DF8032002F5FA62026009B9BB
:1042400007218171034800681CBD0000FC0C0020A0
:10425000DCA20020042800402849084328490860BF
:10426000704730B50F22C47801780123FCB1244C8B
:10427000246801F1E02104F4E064C4F5E064C4F3CF
:104280000724C4F10405E2404478AC408578154029
:1042900025432A0181F80024007800F01F018B409B
:1042A0004009800000F1E020C0F8003130BD01F08D
:1042B0001F0083404809800000F1E020C0F88031F1
:1042C00030BD104A114001430D48001F0160704786
:1042D0000B4A121D0029116801D0014300E08143FF
:1042E000116070474FF0E0210428086903D020F0E6
:1042F00004000861704740F00400FAE70000FA0586
:104300000CED00E080FFFF1F354900200860091D0B
:104310000860091D0860091D0860314931481431E1
:104320000860704730B52E498379026853B30B6833
:1043300093430B600A1D13680468A343136002795A
:104340000A441368046823431360254A083213683B
:104350000468A3431360131D1C680568AC431C600C
:104360004479102C05D021440A68006802430A6091
:1043700030BD116804682143116019680068014369
:10438000196030BD0079084401689143016030BD77
:104390000021016001710C22427181717047104946
:1043A00010310A6802430A60704701460C4A002037
:1043B000143212680A4200D00120704708491431B3
:1043C000086070470146064A0020143212680A420B
:1043D00000D0012070470249143108607047000086
:1043E000003C0140FFFF7F00824910B5884206D1A2
:1043F0000121084600F03DFB002101205BE07E49E1
:10440000884206D10121022000F033FB0021022066
:1044100051E07A49884206D10121042000F029FBAD
:104420000021042047E07649884206D10121082076
:1044300000F01FFB002108203DE07249884206D1B0
:104440000121102000F015FB0021102033E06E49FF
:10445000884206D10121202000F00BFB0021202002
:1044600029E06A49884206D10121402000F001FB81
:10447000002140201FE06649884206D101218020AA
:1044800000F0F7FA0021802015E06249884202D14D
:10449000012184150AE06049884202D101214415B6
:1044A00004E05E4988420AD101210415204600F04B
:1044B000E0FA00212046BDE8104000F0DABA10BD55
:1044C000F0B50023012403270D6804FA03F2154018
:1044D000954242D1D0F800C05E0007FA06F52CEAFA
:1044E000050CC0F800C091F804C0D0F800E00CFA48
:1044F00006FC4CEA0E0CC0F800C091F804C0BCF1F8
:10450000010F02D0BCF1020F1FD1D0F808C02CEA75
:10451000050CC0F808C091F805C0D0F808E00CFA06
:1045200006FC4CEA0E0CC0F808C0D0F804C02CEA17
:10453000020CC0F804C0426891F806C00CFA03FCF3
:104540001FFA8CFC42EA0C024260C268AA43C260B5
:10455000CA79C568B2402A43C2605B1C102BB3D332
:10456000F0BD4FF6FF710160002101714171817151
:10457000C171704708B541F480320092C261C161D7
:104580000099C161C169C069009008BD0246002060
:1045900012690A4200D001207047006980B270475A
:1045A0000246002052690A4200D00120704740694B
:1045B00080B2704701837047418370470AB101831D
:1045C0007047418370474161704742694A40426188
:1045D00070474B07DB0E9A40C90810B500EB81000D
:1045E000016A0F249C40A1430162016A11430162E8
:1045F00010BD00000000024000040240000802401C
:10460000000C02400010024000140240001802405A
:10461000001C02400020024000240240002802400A
:1046200010B501210C07204600F041FA2046BDE8F4
:104630001040002100F03BBA3D49086270473D4AF6
:10464000116821F0E00101431160704738490861A9
:1046500070473749C1F8A00070473549C1F8A40038
:104660007047344A116821F440410143116070479A
:104670002F49086470472E49486470472D49002827
:10468000086802D040F4402001E020F44020086097
:104690007047274948627047264B10B51A6840F6A4
:1046A0000344A24302431A602348026842F0040212
:1046B0000260012905D020BF016821F004010160DA
:1046C00010BD30BFF8E71B4B10B51A6840F6034425
:1046D000A24302431A601848026842F004020260D2
:1046E000012905D020BF016821F00401016010BD3F
:1046F00030BFF8E70F48016841F00401016001682C
:1047000041F0020101600C48016841F004010160C0
:1047100030BF7047074A0146002052680A4200D065
:104720000120704703490A6842EA80000860704728
:1047300000000E420070004010ED00E0F8480168F3
:1047400041F001010160F64A00210832116002685F
:10475000F44B1A400260031DF34A1A60F04BF34A0F
:1047600084331A60F04A103A1B1D1A60026822F462
:1047700080220260EA480C300160181D0160704719
:10478000E7490022891C0A70087070470246002021
:10479000510901290CD002290CD0E1497431096872
:1047A00002F01F02012393400B4200D0012070470A
:1047B000DB49F4E7DA497031F1E718B500204FF42E
:1047C000A04400903120FFF7E1FF0099491C0091BF
:1047D000A14201D00028F5D03120FFF7D7FF0028F3
:1047E00000D0012018BDCE490A6822F0F80242EA42
:1047F000C00008607047CE4908607047C849002271
:1048000070310A700A70012802D0042801D10520F5
:1048100008707047C7490860704741EA82115A081A
:1048200010B5C54B029C03EB02421143014341EA20
:104830000460BB49091D086010BDBD49086670478A
:10484000800140EA0170B649843108607047B84978
:1048500088667047800140EA0160B14940EA027011
:10486000883108607047B24908677047B049C8642A
:104870007047AB4A08321368084323F0EC631843CF
:1048800010607047A64A08321368084323F0784343
:10489000184310607047A24A0832116821F00301E2
:1048A0000143116070479E480830006800F00C001A
:1048B00070479B4A0832116821F0F00101431160F2
:1048C0007047974A0832116821F4E05101431160A2
:1048D0007047934908310A6822F4604242EAC000F6
:1048E0000860704770B58E4A08321168934C11F019
:1048F0000C0104D06610042903D0082903D00460F9
:104900001BE0066019E08649091D0B68C3F380555A
:104910000B6803F03F0315B1B6FBF3F301E0B4FB02
:10492000F3F30C680968C4F388146343C1F30141CD
:10493000491C4900B3FBF1F1016011680F2303EA40
:1049400011117F4B5C5C0168E140416014680725F0
:1049500005EA94241C5D21FA04F48460126805EAD7
:1049600052329A5CD140C16070BDC0F3012103296D
:1049700008D16B4A0832116821F4F81371490140DB
:1049800019431160664970310A68C0F30B00024395
:104990000A60704767494439086070476549403983
:1049A000086070476249C1F85C0170475C4A8C320C
:1049B0001168401E21F01F010143116070475849E2
:1049C0008C310A686FF0FF0322F4F85203EB0020E9
:1049D000104308607047524A8C32116821F440112C
:1049E0000143116070474E4A8C32116821F4400136
:1049F0000143116070474A4A8C32116821F44031FA
:104A00000143116070475049C1F8E0017047444AC2
:104A100030320029116801D0014300E08143116068
:104A200070473F4A34320029116801D0014300E049
:104A30008143116070473A4A38320029116801D029
:104A4000014300E0814311607047354A403200293C
:104A5000116801D0014300E0814311607047304A82
:104A600044320029116801D0014300E08143116004
:104A700070472B4A10320029116801D0014300E031
:104A8000814311607047264A14320029116801D011
:104A9000014300E0814311607047214A1832002928
:104AA000116801D0014300E08143116070471C4A46
:104AB00020320029116801D0014300E081431160D8
:104AC0007047174A24320029116801D0014300E0E1
:104AD000814311607047124A50320029116801D099
:104AE000014300E08143116070470D4A54320029B0
:104AF000116801D0014300E0814311607047084A0A
:104B000058320029116801D0014300E0814311604F
:104B10007047034A60320029116817D0014316E03C
:104B200000380240FFFFF6EA103000240030002079
:104B300000004742800E47420000FFFF0024F400BF
:104B4000080D0020FFFCFF0F001047428143116059
:104B50007047134A0029116801D0014300E08143E6
:104B6000116070470E4A573A0029117801D001436D
:104B700000E081431170704709481030016841F02E
:104B80008071016070470146054A0020583A12685A
:104B90000A4200D001207047014956390870704719
:104BA0006438024018B50020FB490090CA20086014
:104BB00053200860F8481838026822F0A00202600A
:104BC0004FF400340268009B02F020025B1C00934B
:104BD000A34201D0002AF5D00068800601D501204B
:104BE00000E00020FF220A6018BD08B500200090F8
:104BF000E94818380168490612D44FF0FF310160C6
:104C000083130168009A01F04001521C00929A42FD
:104C100001D00029F5D00068400601D4002008BD6D
:104C2000012008BD78B50024DB4ECA20009425463B
:104C3000306053203060FFF7D8FFE0B3D648243807
:104C40000460D54942F2011020390860091D086846
:104C500000F0070008608D13081D0268009B02F039
:104C600004025B1C0093AB4201D0002AF5D002681D
:104C7000520729D50A680C60C74A4FF6FF71103AEF
:104C80001160121FC5491160C3490C390C60091D20
:104C90000C60091D0C60C04908310C60BE49183118
:104CA0000C60BD4920310C60091D0C600460BA48DD
:104CB0001C30046000E003E0FFF774FF20B1012521
:104CC000FF203060284678BD0025F9E7B248183843
:104CD000016821F080010160704770B5AE4E044656
:104CE0000025CA20306053203060FFF77EFFA8B156
:104CF000A9481C38016821F0400101600168226860
:104D000011430160A448A168143801600168A288B9
:104D100041EA02410160FFF7D9FF0125FF20306021
:104D2000284670BD002101607F214160FF21816024
:104D30007047994908B1FF2002E0CA20086053205B
:104D40000860704770B5944C06460025CA20206064
:104D500053202060FFF749FF60B18F481C3801687D
:104D600016B141F0100101E021F010010160FFF7E0
:104D7000ADFF0125FF202060284670BD864ACA216C
:104D800011605321116084491C390028086802D041
:104D900040F0200001E000F0DF000860FF2010601C
:104DA00070472DE9F0417E4F0C4602004FF000069F
:104DB00020783A6831464FEA426204D0002A15DA78
:104DC00000F005FC13E0002A00DBE17000F0F3FBCB
:104DD0000504607800F0EFFB45EA0025A07800F0BC
:104DE000EAFB0543E07845EA00450AE0E170A07877
:104DF000217840EA01456078E178000240EA01400C
:104E00000543654CCA20206053202060FFF7EDFE6B
:104E100068B164480540624808380560FFF756FFEE
:104E20003868800602D4FFF7BDFE00B10126FF20DE
:104E300020603046BDE8F0810021C17001704170F2
:104E40008170704710B50C46554908390968554AB4
:104E50001140C1F305422270C1F30623637001F0D3
:104E60007F03A370402303EA1141E17000280BD1B6
:104E7000104600F0ACFB2070607800F0A8FB60707A
:104E8000A07800F0A4FBA07010BD4348001D00688E
:104E90004349091F0968704770B50C4601006078E6
:104EA0004FF0000629D000F092FBA07800F08FFBB5
:104EB000A078E17840EA014560782178000240EA74
:104EC00041300543344CCA20206053202060FFF756
:104ED0008CFE70B1344805403148001F0560FFF773
:104EE000F5FE2F480068800602D4FFF75BFE00B194
:104EF0000126FF202060304670BDC10603D520F09A
:104F000010000A306070E07800F055FB050460780E
:104F100000F051FB45EA0025A07800F04CFB05436A
:104F2000207845EA4035CDE701210170817041705C
:104F30000021C170704710B50C461949091F096856
:104F4000194A11400A0CE270C1F30423637001F0A6
:104F50003F03A370C1F34231217000280BD11046EA
:104F600000F035FBE070607800F031FB6070A078F5
:104F700000F02DFBA07010BD70B514460D46084A18
:104F80000021002810684FEA40600FD0002826DA80
:104F9000207800F01CFB23E024280040FF007F0065
:104FA000082800407F7F7F003FFFFF00002800DBD4
:104FB000E170207800F0FFFA0604607800F0FBFA58
:104FC00046EA0026A07800F0F6FA0643E07846EAC2
:104FD0000046207B00F0EFFA46EA006010E0E17046
:104FE000207B00F0F4FAA0782178E27840EA0140D2
:104FF0006178090241EA02410843217B40EA0160ED
:10500000A168FA4A084361680843CA211160532124
:105010001160B5F5807F04D0111F0860FF2010607B
:1050200070BDF2490839F8E70021C1700170417084
:1050300081700122816002734160704710B514468F
:10504000B1F5807F2BD0E949091F0968C1F30542FA
:105050002270C1F30623637001F07F03A370402325
:1050600003EA1143E370C1F30563237301F0804346
:1050700001F08031C4E9011300280FD1104600F07F
:10508000A6FA2070607800F0A2FA6070A07800F0B4
:105090009EFAA070207B00F09AFA207310BDD349CD
:1050A0000839D2E738B50022D04B0092CA221A60E4
:1050B00053221A60CD4A1C3A0029116802D00143DC
:1050C000116012E081431160C84A183A95131168C3
:1050D000009C01EA1021641C0094AC4201D000291C
:1050E000F5D0116811EA102000D00120FF211960CD
:1050F00038BD10B5BD4BCA241C6053241C6011433D
:10510000B0F5807F05D0B94824300160FF201860D9
:1051100010BDB6482030F8E7B0F5807F05D0B34821
:1051200024300068C0F30E007047B0482030F8E724
:10513000AE4ACA21116053211160AC491C390B6879
:1051400023F007030B600B6803430B60FF20106024
:105150007047A649CA220A6053220A60A34A103A3D
:105160001060FF2008607047A0481038006880B2C7
:10517000704718B500219D4A0091CA211160532142
:1051800011609A491C390028086803D040F48060F7
:10519000086014E020F48060086094481838841394
:1051A0000168009B01F004015B1C0093A34201D045
:1051B0000029F5D00068400701D4002000E001205C
:1051C000FF21116018BD894B10B5CA221A60532205
:1051D0001A60864A1C3A146824F480241460146807
:1051E000084304431460FF20186010BD7F481C383A
:1051F000006800F4802070477C4B10B5CA221A600A
:1052000053221A60794A1C3A146824F4E0041460AA
:105210001468084304431460FF20186010BDF0B503
:10522000724C07460025CA200E462060532020609D
:10523000FFF7DBFC30B16D4837430C380760FFF7F0
:1052400045FD0125FF2020602846F0BD70B5674C64
:1052500006460025CA20206053202060FFF7C5FCC9
:1052600060B162481C38016816B141F0800101E06C
:1052700021F080010160FFF729FD0125FF2020605A
:10528000284670BD594ACA211160532111605749FF
:105290001C390028086802D040F4000001E020F426
:1052A00000000860FF2010607047504ACA2111605A
:1052B000532111604D491C390B6823F400230B6006
:1052C0000B6803430B60FF2010607047F0B5474B3D
:1052D0000024CA251D6053251D60444D183D2E68CD
:1052E000F60308D54FF400362F68FF0303D5B44208
:1052F00001D0641CF8E72C68E40306D408433B495A
:10530000104318310860012000E00020FF211960DF
:10531000F0BD364B10B51C3B1A6840F60804A2439A
:1053200042EA000209B142F400623048CA21016039
:10533000532101601A60FF21016010BD70B50D4658
:105340002A4914460C310968294A1140274A10326B
:1053500012684FF63F731A40C1F305432B70C1F337
:1053600006236B7001F07F03AB70402303EA114109
:10537000E9700021E170C2F30421617002F03F0185
:10538000A170C2F342312170002817D1287800F0B3
:105390001EF92870687800F01AF96870A87800F093
:1053A00016F9A870607800F012F96070A07800F02B
:1053B0000EF9A070207800F00AF9207070BD0B483B
:1053C000143000687047094A1C320029116803D064
:1053D00041EA40001060704721EA4000FAE7034AC2
:1053E0001C320029116805D0014304E02428004044
:1053F0007F7F7F0081431160704779490A6822F4FA
:10540000C0520A600A6802430A60704774490A6819
:1054100022F4E0620A600A6802430A607047704939
:105420000A6822F4C0420A600A6802430A607047B0
:105430006B490028086802D040F0800001E020F0AD
:1054400080000860704766490028086802D020F490
:10545000004001E040F4004008607047604A08B531
:10546000103202EB80000090016008BD5C4908B575
:10547000103101EB80000090006808BD58490A68AF
:1054800022F480320A600A6802430A607047544975
:105490000A6822F400320A600A6802430A60704710
:1054A0004F490A6822F480220A600A6802430A60AF
:1054B000704770B54A4C0022CA231C3C236053231A
:1054C0002360474B343B1D682D0707D59D141E688C
:1054D000360703D5AA4201D0521CF8E71A68120712
:1054E0000DD43F4A383A1268D20608D401433C48EA
:1054F00014380160FFF756FB10B1012000E00020D6
:10550000FF21216070BD30B5354DCA221C3D2A6097
:1055100053222A60324B20F00404383B0029304AE1
:10552000196800F0040004D0214319601168014398
:1055300003E0A1431960116881431160FF202860D6
:1055400030BD02462649002034390968254B1940F0
:10555000114200D00120704780B240F08000C1436A
:105560001F483438026802F080021143016070471E
:105570001B4A0021126802F00403194A383A1268E3
:1055800003EAD03302401A43174B1B6803EA10109A
:1055900003D00004000C00D0012108467047C0F37E
:1055A0000F1040F08000C1430F48026802F08002F3
:1055B000114301607047002103E0491C0A38C9B259
:1055C000C0B20A28F9D2090740EA11607047010900
:1055D00001EB810100F00F0000EB4100C0B2704709
:1055E000402800407F3F01000C280040FE4910B5D4
:1055F000884206D101210846FFF763FA0021012005
:105600005BE0B0F1804F09D0F84988420DD101210B
:105610000220FFF74CFA0021022070E00121084629
:10562000FFF745FA0021012069E0F149884206D1DF
:1056300001210420FFF73BFA002104205FE0ED493F
:10564000884206D101210820FFF731FA0021082005
:1056500055E0E949884206D101211020FFF727FAD9
:10566000002110204BE0E549884206D1012120208D
:10567000FFF71DFA0021202041E0E149884206D1D0
:1056800001210220FFF71DFA0021022015E0DD496B
:10569000884202D101210C040AE0DB49884202D190
:1056A00001214C0404E0D94988420AD101218C042B
:1056B0002046FFF706FA00212046BDE81040FFF71C
:1056C00000BAD349884206D101214020FFF7EFF903
:1056D0000021402013E0CF49884206D101218020DB
:1056E000FFF7E5F90021802009E0CB4988420AD183
:1056F000841501212046FFF7DAF900212046BDE894
:105700001040FFF7D4B910BD30B50288B64BBC4C81
:1057100098420DD0A0420BD0B0F1804F08D0B34DCD
:10572000A84205D0B24DA84202D0B24DA84203D142
:1057300022F070054A882A43AF4DA84206D0AF4DEB
:10574000A84203D022F440750A892A4302804A689D
:10575000C2620A880285984201D0A04201D1897AAA
:1057600001860121818230BD4FF0FF31416000216F
:10577000018001814180817270470185828270477A
:10578000028822F070020A4302807047416270472B
:10579000C1627047406A7047008D704700290188D8
:1057A00002D041F0020101E021F0020101807047C6
:1057B0000029018802D041F0040101E021F0040138
:1057C000018070470029018802D041F0800101E08A
:1057D00021F0800101807047028822F008020280D7
:1057E00002880A4302807047028822F440720280D5
:1057F00002880A43028070470029018802D041F0E4
:10580000010101E021F001010180704730B5028CF7
:1058100022F001020284028C8388048B22F00202AF
:1058200024F073050C882C438D8915434A882A433C
:105830006D4DA84202D0724DA8420DD122F008054C
:10584000CA8923F440732A4322F004058A882A4334
:105850000D8A1D434B8A2B438380048389684163EF
:10586000028430BD70B5028C22F010020284028CDA
:105870008488038B0D8823F4E6464FF6FF7303EA12
:10588000052535438E8922F0200203EA06161643C9
:105890004A8803EA02123243534EB04202D0584EB5
:1058A000B04215D122F08006CA8924F4406403EA8C
:1058B0000212324322F040068A8803EA021232437F
:1058C0000E8A03EA860626434C8A03EA840434439C
:1058D0008480058389688163028470BD70B5028C01
:1058E00022F480720284028C8488838B0D8823F0DA
:1058F00073031D4322F400738E894FF6FF7202EA90
:1059000006261E434B8802EA03233343364EB04239
:1059100002D03B4EB04215D123F40066CB8924F46B
:10592000405402EA0323334323F480668B8802EA5F
:10593000032333430E8A02EA061626434C8A02EA00
:1059400004143443848085838968C163038470BDF3
:1059500070B5028C22F480520284048C8288838B7E
:105960000D8823F4E6464FF6FF7303EA0525354319
:1059700024F400568C8903EA043434434E8803EA45
:1059800006362643184CA04202D01D4CA04205D139
:1059900022F480440A8A03EA8212224382808583A9
:1059A00089680164068470BD002101804180818086
:1059B00081608181C18101824182704730B50124BB
:1059C000058C00F118038C40A543058431B30829E8
:1059D0002CD0091FC1F34E001844016848F6FF732C
:1059E0001940016001681AE0000001400004004015
:1059F00000080040000C004000100040001400406F
:105A000000040140004001400044014000480140C2
:105A100000180040001C00400020004006E04FF647
:105A2000FF7303EA02221143016030BD03EB510012
:105A300001684FF68F73194001600168F3E7416315
:105A4000704781637047C163704701647047028B80
:105A500022F070020A4302837047028B4FF6FF73F5
:105A600022F4E04203EA0121114301837047828B53
:105A700022F070020A4382837047828B4FF6FF73D5
:105A800022F4E04203EA0121114381837047028B33
:105A900022F008020A4302837047028B4FF6FF731D
:105AA00022F4006203EA0121114301837047828BD3
:105AB00022F008020A4382837047828B4FF6FF73FD
:105AC00022F4006203EA0121114381837047028BB3
:105AD00022F004020A4302837047028B4FF6FF73E1
